:040000008A11112828
:10000800FE00030EFA000408FB000A08FC00831235
:1000180003137F08FD008A11C6288A11132883124A
:100028000313A001A101A201A301A401A501A60136
:10003800A701A801A901AA01AB01AC0183018A119A
:10004800102983120313B20032088A1146218A113B
:10005800710883120313B0007008AF0007108710EF
:10006800071187110130AD000030AE00B10110302A
:100078003106031966280613310AF4000130F50029
:100088000030F6004A280310F50DF60DF40B47284A
:100098002F087505F70030087605F800770878040A
:1000A80003195A288312031387175D288312031331
:1000B800871306170130F4007408B10710303106B1
:1000C800031D3F288716061387123208031D702860
:1000D80083120313071473288312031307103203C0
:1000E800031D7A288312031387147D2883120313B0
:1000F800871002303206031D852883120313071563
:10010800882883120313071103303206031D902831
:10011800831203138715080083120313871108003D
:1001280083120313B401043034060319BC283408BD
:100138002806031DAB283408B3003307203E84008B
:10014800FF3083138000840AFF308000B42834080D
:10015800B3003307203E840083138001840A8001A2
:100168000130B3003308B40704303406031D9B285C
:100178000130B3003308A80704302806031D08001F
:10018800A80108000C1CEA280C101010F6308F008B
:100198003B308E0010142B088A1125208A1101305B
:1001A800F900790883120313AB0704302B060319EF
:1001B800AB010130F9007908AA0764302A06031D4B
:1001C800EA28AA010130F9007908AC007D08FF008F
:1001D8007C088A007B0884007A0E8300FE0E7E0E5F
:1001E8000900831203179E019F01831603138712C8
:1001F80087130613831203138712871306138316B4
:1002080003130710871007118711831203130710B0
:1002180087100711871108008A11F5208A118A11A1
:1002280036218A118A1123218A11831203132C087B
:1002380003191929AC018A1153218A1119295A3035
:1002480083120313A0005A30A100A530A200A530E4
:10025800A3005A30A4005A30A500A530A600A53046
:10026800A70008008312031390018B170B1783163E
:1002780003130C14F630831203138F003B308E00E7
:1002880010140800F3007308F2007207203E84007F
:1002980083130008F000840A0008F10008005729B9
:1002A8008A1194200800831203132908003A0319BD
:0602B80054295E29080034
:02400E00D4FFDD
:00000001FF
